:10135D00E5845408FFE58454804F4470F584E5849A
:10136D005470FFBF70037F0022E4F50FF50EF50DED
:10137D00F50CE47FE07E2EFDFCAB0FAA0EA90DA8A7
:10138D000CC31215B05017E50F2401F50FE4350EFF
:10139D00F50EE4350DF50DE4350CF50C80D4E58432
:1013AD005408FFE58454804F4476F584E5845470E9
:1013BD006470601CE584547024D0600E24E06007D6
:1013CD0024F070097F01227F02227F03227F0022F9
:1013DD00E5845408FFE58454804F4475F584E58415
:1013ED0054706470601CE584547024D0600E24E049
:1013FD00600724F070097F04227F05227F06227F7B
:10140D000022E5845408FFE58454804F4473F5842D
:10141D00E58454706470601CE584547024D0600EB3
:10142D0024E0600724F070097F07227F08227F09DE
:06143D00227F00227F0067
:011443002286
:10007E008040201008040201000000000000000073
:10008E000000000000000000804020100804020163
:10009E00C04060504B4D7341414141414140400091
:1000AE0010204080FF02020282422212FF0402014F
:1000BE00905031353F55579F55553725111010002B
:1000CE00112B69BF692B1100916B69BF692F130149
:1000DE00884968380F0C0625252404FF0444340093
:1000EE00020498609C027F02FC4424F00C060F016F
:1000FE00C04764547C0503FF01050911610101002D
:10010E0000C241427C0000FF82C46010080402015C
:10011E0080403F322A47C2430418F01310141800CF
:10012E000106F80000FE0001824C30D038060301B3
:10013E0088503F55DD55575F555575151F0000000A
:10014E004040405F55555555D555755F4844420161
:10015E00804720FF0804424F49494949494F400012
:10016E00800000FF000002F2A26222322AF6020193
:10017E000000000000000000000000000000000071
:10018E000000003F00000000000000981800000072
:10019E000008304830400000000000000000000061
:1001AE000004041F041F04000040F840F840400003
:1001BE00000E113F100C0000003008FE8870000089
:1001CE000E110E0106180000001860807088700075
:1001DE00000F110F01010000F008C828F0080800F8
:1001EE000868700000000000000000000000000021
:1001FE000000000718204000000000C03008040076
:10020E00004020180700000000040830C000000065
:10021E000202010F01020200404080F080404000C7
:10022E000101010F01010100000000E000000000CB
:10023E000000000000000000021A1C000000000078
:10024E000101010101010100000000000000000099
:10025E000000000000000000001818000000000060
:10026E000000000106384000000C30C00000000005
:10027E00000708101008070000E010080810E00042
:10028E000008081F00000000000808F80808000019
:10029E00000C101010110E000018284888081800C5
:1002AE00000C101111120C000030080808887000A4
:1002BE00000102041F00000000C04048F84848003A
:1002CE00001F111212121100003008080808F00069
:1002DE00000708111119000000F088080808F00046
:1002EE00001C1010131C1000000000F8000000008D
:1002FE00000E111111110E00007088080888700090
:10030E00000F101010090700000098888810E000F8
:10031E000000000303000000000000181800000099
:10032E0000000002000000000000020C00000000AF
:10033E000001020408102000000080402010080078
:10034E0002020202020202004040404040404000D1
:10035E000020100804020100000810204080000058
:10036E00001C202020211E0000000018D8000000D4
:10037E000708131417080700E010E828C828D00053
:10038E0000000718070000000878C840C878080069
:10039E00101F111111120C0008F8080808887000BF
:1003AE000708101010101C00E0100808081020009C
:1003BE00101F10101008070008F808080810E000B9
:1003CE00101F11111710080008F80808C8081000AF
:1003DE00101F11111710080008F80800C0000000C7
:1003EE0007081010101C0000E010080848704000AC
:1003FE00101F1101111F100008F8080008F808005E
:10040E000010101F10100000000808F80808000067
:10041E00000010101F10100006020202FC00000067
:10042E00101F11031418100008F80880681808002F
:10043E00101F10000000000008F808080808180037
:10044E00101F1E011E1F100008F800F800F808000B
:10045E00101F1C03101F100008F8088070F8000011
:10046E000708101010080700E01008080810E00038
:10047E00101F111111110E0008F8080000000000E5
:10048E000708101010080700E01028281814E400C0
:10049E00101F1111110E000008F8088060180800D6
:1004AE00000E111110101C0000380808888870000A
:1004BE001810101F10101800000008F80800000097
:1004CE00101F1000101F100000F0080808F00000A8
:1004DE00101E1100111E10000000E018E0000000B8
:1004EE00101F001F001F10000080F800F880000091
:1004FE0010181601161810000818688068180800E1
:10050E00101C1300131C1000000008F80800000057
:10051E0000081010131C1000000838C80808180036
:10052E000000007F40404000000000FC0404040076
:10053E0000300C030000000000000080601C020070
:10054E00004040407F00000000040404FC00000056
:10055E0000002040402000000000000000000000CD
:10056E00000000000000000002020202020202006F
:10057E0000404020000000000000000000000000CD
:10058E0000010202020100000030488888F80800CD
:10059E00101F01020202010000F808080808F0000E
:1005AE00000001020202010000E01008080810001D
:1005BE000001020202121F0000F008080810F808DD
:1005CE00000102020202010000F088888888900073
:1005DE000002020F12121800000808F808080000A6
:1005EE00000102020203020000AC525252920C00B1
:1005FE00101F01020202010008F808000008F808A6
:10060E0000021A1B00000000000808F8080800008D
:10061E00000000021A1B00000006020202FC00008D
:10062E00101F00000302020008F848806818080036
:10063E000010101F00000000000808F80808000055
:10064E00020302030201000008F800F800F8080097
:10065E00020301020202010008F808000008F8086F
:10066E00000001020201000000E010080810E00086
:10067E00020301020202010002FE0A080808F0004D
:10068E00000102020202030000F008080812FE0236
:10069E0002020301020203000808F8080800000025
:1006AE000001020202030000009848484830000092
:1006BE000002020F02020000000000F00808000015
:1006CE00020300000002030000F008080810F808FA
:1006DE0002030200000203020000E01820C0000026
:1006EE00020300030003020000C038C038C000003F
:1006FE000002030002030200000818E8E0180800D8
:10070E0002030200000203020202E21C30C00000DB
:10071E00000302020203020000081868880818008D
:10072E00000000017E40000000000000FC040000FC
:10073E00000000FF00000000000000FE00000000AE
:10074E000000407E01000000000004FC00000000DC
:10075E0000608080402020C00000000000000000EB
:0919EA0001240001250001260082
:0918EC007F011219DC7F0A7E0065
:1018F500EF1FAA0670011E4A6015E4FCFDD3ED94A6
:0F19050014EC6480948050E80DBD00010C80EE5E
:0119140022B0
:101915005384F7E4FDAE07EF3392B5C2B4E4FC0C93
:10192500BC03FCD2B4E4FC0CBC03FCEE25E0FF0DCB
:06193500BD08E243840836
:01193B002289
:10193C00438408E4FDAE07EF3392B5C2B4E4FC0C6B
:10194C00BC03FCD2B4E4FC0CBC03FCEE25E0FF0DA4
:06195C00BD08E25384F710
:011962002262
:0E19DC00AE05EFAF06600302191512193C228A
:10181A004384801218F153847F1218F14384801292
:10182A0018F17DE27F011219DC7DA37F011219DC18
:10183A007DA07F011219DC7DC07F011219DC7D2693
:10184A007F011219DC7F057E001218F57D2C121813
:10185A00EC7D2E1218EC7D2F1218EC7D817F01127F
:10186A0019DC7D201218EC7DF87F011219DC7D014C
:10187A007F011219DC7F057E001218F57DAF7F010A
:03188A000219DC64
:02198A00AB07A9
:10198C00ED44B0FF121915EB54F0C4540FFEEB5498
:0E199C000FFBEE4410FF121915AF03021915D0
:0A1A050012198A7DFFE4FF0219DCCC
:101963007BB7AD037F011219DC7D107F011219DCF7
:10197300E4FD7F011219DCE4FAE4FF12193C0ABA10
:0619830080F71BBBAFDC86
:01198900223B
:03188D0024FEFD39
:021890008F1DAA
:10189200ED131313541FF51FB5251AE51DB52615B3
:1018A200ED5407FF7480A807088002C313D8FC45D3
:1018B20024F51E8011ED5407FF7480A807088002EA
:1018C200C313D8FCF51EE51F24F9FFE434FFFE1212
:1018D2000067AD07AF1D12198AAD1EE4FF1219DCB5
:0918E200851E24851F25851D26A5
:0118EB0022DA
:100B1900EF24E0F51BEDC454F0FFC3743F9FF519B2
:0A0B2900EB75F008A4F51AE4F518C6
:100B3300E51825E0F51CE518C394084003020CA64C
:100B430075F010E51BA4247EF582E5F03401F583EE
:100B5300E5822518F582E43583F583E49330E70ACB
:100B6300E51A2518FFAD1912189075F010E51BA4AE
:100B7300247EF582E5F03401F583E5822518F582BC
:100B8300E43583F583E49330E60CE51A2518FFE595
:100B93001914FD12189075F010E51BA4247EF5823C
:100BA300E5F03401F583E5822518F582E43583F514
:100BB30083E49330E50AE51A2518FFE51912188D29
:100BC30075F010E51BA4247EF582E5F03401F5836E
:100BD300E5822518F582E43583F583E49330E40D4B
:100BE300E51A2518FFE51924FDFD12189075F0107C
:100BF300E51BA4247EF582E5F03401F583E5822527
:100C030018F582E43583F583E49330E30DE51A2583
:100C130018FFE51924FCFD12189075F010E51BA4CC
:100C2300247EF582E5F03401F583E5822518F5820B
:100C3300E43583F583E49330E20DE51A2518FFE5E7
:100C43001924FBFD12189075F010E51BA4247EF502
:100C530082E5F03401F583E5822518F582E43583D6
:100C6300F583E49330E10DE51A2518FFE51924FA1D
:100C7300FD12189075F010E51BA4247EF582E5F0B3
:100C83003401F583E5822518F582E43583F583E4A1
:100C93009320E003020E1EE51A2518FFE51924F937
:100CA300020E1A75F010E51BA4247EF582E5F034DC
:100CB30001F583E5822518F582E43583F583E49312
:100CC30030E70FE51A251824F8FFE51924F8FD127B
:100CD300189075F010E51BA4247EF582E5F034012D
:100CE300F583E5822518F582E43583F583E49330B3
:100CF300E60FE51A251824F8FFE51924F7FD121865
:100D03009075F010E51BA4247EF582E5F03401F51F
:100D130083E5822518F582E43583F583E49330E592
:100D23000FE51A251824F8FFE51924F6FD1218908B
:100D330075F010E51BA4247EF582E5F03401F583FC
:100D4300E5822518F582E43583F583E49330E40FD7
:100D5300E51A251824F8FFE51924F5FD12189075F6
:100D6300F010E51BA4247EF582E5F03401F583E55C
:100D7300822518F582E43583F583E49330E30FE5A8
:100D83001A251824F8FFE51924F4FD12189075F0BC
:100D930010E51BA4247EF582E5F03401F583E5829A
:100DA3002518F582E43583F583E49330E20FE51AE1
:100DB300251824F8FFE51924F3FD12189075F01097
:100DC300E51BA4247EF582E5F03401F583E5822555
:100DD30018F582E43583F583E49330E10FE51A25B2
:100DE3001824F8FFE51924F2FD12189075F010E5A8
:100DF3001BA4247EF582E5F03401F583E5822518F2
:100E0300F582E43583F583E49330E00FE51A251882
:0B0E130024F8FFE51924F1FD121890EF
:0C0E1E000518E518C394105003020B33B4
:010E2A0022A5
:061661008B0C8A0D890EBE
:10166700E4F511F512F513F514EDC454F02510F552
:1016770017D3943F507AED94035075E510940F40BB
:1016870002806DE5124511706FAB0CAA0DA90E1201
:10169700150C605C7E00E5142517FBEE3513FA7C0C
:1016A700007D10AF03FE12157A8F157C007D10AFF9
:1016B70003AE0212157A8D16AB0CAA0D12150CFF8C
:1016C700AB16AD15120B197401250EF50EE4350D89
:1016D700F50D0514E514700205137E002517FFEEBE
:1016E7003513FED3EF943FEE6480948040958000DD
:0816F700751100751201808BD2
:0116FF0022C8
:100E2B008F23EDC454F0FFC3743F9FF521EBC454E3
:100E3B00F0F522E4F520E520C394104003020FA641
:100E4B00E523C43354E0249EF582E43400F583E5B6
:100E5B00822520F582E43583F583E49330E70AE5B8
:100E6B00222520FFAD21121890E523C43354E02432
:100E7B009EF582E43400F583E5822520F582E43586
:100E8B0083F583E49330E60CE5222520FFE521145E
:100E9B00FD121890E523C43354E0249EF582E4340C
:100EAB0000F583E5822520F582E43583F583E49311
:100EBB0030E50AE5222520FFE52112188DE523C434
:100ECB003354E0249EF582E43400F583E58225203B
:100EDB00F582E43583F583E49330E40DE522252098
:100EEB00FFE52124FDFD121890E523C43354E024C3
:100EFB009EF582E43400F583E5822520F582E43506
:100F0B0083F583E49330E30DE5222520FFE52124CF
:100F1B00FCFD121890E523C43354E0249EF582E4C3
:100F2B003400F583E5822520F582E43583F583E4EF
:100F3B009330E20DE5222520FFE52124FBFD12185D
:100F4B0090E523C43354E0249EF582E43400F5830A
:100F5B00E5822520F582E43583F583E49330E10DBA
:100F6B00E5222520FFE52124FAFD121890E523C484
:100F7B003354E0249EF582E43400F583E58225208A
:100F8B00F582E43583F583E49320E003021116E543
:100F9B00222520FFE52124F9021112E523C4335445
:100FAB00E0249EF582E43400F583E5822520F5826A
:100FBB00E43583F583E49330E70FE522252024F015
:100FCB00FFE52124F8FD121890E523C43354E024E7
:100FDB009EF582E43400F583E5822520F582E43525
:100FEB0083F583E49330E60FE522252024F0FFE51B
:100FFB002124F7FD121890E523C43354E0249EF509
:10100B0082E43400F583E5822520F582E43583F50F
:10101B0083E49330E50FE522252024F0FFE521241E
:10102B00F6FD121890E523C43354E0249EF582E4B8
:10103B003400F583E5822520F582E43583F583E4DE
:10104B009330E40FE522252024F0FFE52124F5FD64
:10105B00121890E523C43354E0249EF582E4340047
:10106B00F583E5822520F582E43583F583E493301F
:10107B00E30FE522252024F0FFE52124F4FD1218CF
:10108B0090E523C43354E0249EF582E43400F583C9
:10109B00E5822520F582E43583F583E49330E20F76
:1010AB00E522252024F0FFE52124F3FD121890E51D
:1010BB0023C43354E0249EF582E43400F583E582A7
:1010CB002520F582E43583F583E49330E10FE522A7
:1010DB00252024F0FFE52124F2FD121890E523C40E
:1010EB003354E0249EF582E43400F583E582252019
:1010FB00F582E43583F583E49330E00FE522252078
:10110B0024F0FFE52124F1FD1218900520E520C302
:07111B0094205003020E4175
:0111220022AA
:10076E008F1BEDC454F0FFC3743F9FF519EBC454B7
:10077E00F0F51AE4F518E518C39410400302094485
:10078E00E51BC43354E0249EF582E43400F583E582
:10079E00822518F582E43583F583E493FFE51890FE
:1007AE00007E93FEC3EF9E30E70AE51A2518FFADD3
:1007BE0019121890E51BC43354E0249EF582E434DC
:1007CE0000F583E5822518F582E43583F583E493FD
:1007DE00FFE51890007E93FEC3EF9E30E60CE51AFF
:1007EE002518FFE51914FD121890E51BC43354E0CB
:1007FE00249EF582E43400F583E5822518F582E423
:10080E003583F583E493FFE51890007E93FEC3EFE6
:10081E009E30E50DE51A2518FFE51924FEFD121888
:10082E0090E51BC43354E0249EF582E43400F58336
:10083E00E5822518F582E43583F583E493FFE51808
:10084E0090007E93FEC3EF9E30E40DE51A2518FF4F
:10085E00E51924FDFD121890E51BC43354E0249EC7
:10086E00F582E43400F583E5822518F582E43583BC
:10087E00F583E493FFE51890007E93FEC3EF9E3060
:10088E00E30DE51A2518FFE51924FCFD121890E575
:10089E001BC43354E0249EF582E43400F583E582D4
:1008AE002518F582E43583F583E493FFE51890006F
:1008BE007E93FEC3EF9E30E20DE51A2518FFE51973
:1008CE0024FBFD121890E51BC43354E0249EF582E0
:1008DE00E43400F583E5822518F582E43583F5834B
:1008EE00E493FFE51890007E93FEC3EF9E30E10D7A
:1008FE00E51A2518FFE51924FAFD121890E51BC418
:10090E003354E0249EF582E43400F583E582251805
:10091E00F582E43583F583E493FFE51890007E932A
:10092E00FEC3EF9E20E003020B0CE51A2518FFE52F
:10093E001924F9020B08E51BC43354E0249EF582FA
:10094E00E43400F583E5822518F582E43583F583DA
:10095E00E493FFE51890007E93FEC3EF9E30E70F01
:10096E00E51A251824F0FFE51924F8FD121890E574
:10097E001BC43354E0249EF582E43400F583E582F3
:10098E002518F582E43583F583E493FFE51890008E
:10099E007E93FEC3EF9E30E60FE51A251824F0FF76
:1009AE00E51924F7FD121890E51BC43354E0249E7C
:1009BE00F582E43400F583E5822518F582E435836B
:1009CE00F583E493FFE51890007E93FEC3EF9E300F
:1009DE00E50FE51A251824F0FFE51924F6FD121887
:1009EE0090E51BC43354E0249EF582E43400F58375
:1009FE00E5822518F582E43583F583E493FFE51847
:100A0E0090007E93FEC3EF9E30E40FE51A25182466
:100A1E00F0FFE51924F5FD121890E51BC43354E0E0
:100A2E00249EF582E43400F583E5822518F582E4F0
:100A3E003583F583E493FFE51890007E93FEC3EFB4
:100A4E009E30E30FE51A251824F0FFE51924F4FD76
:100A5E00121890E51BC43354E0249EF582E4340052
:100A6E00F583E5822518F582E43583F583E493FF5B
:100A7E00E51890007E93FEC3EF9E30E20FE51A2537
:100A8E001824F0FFE51924F3FD121890E51BC4336A
:100A9E0054E0249EF582E43400F583E5822518F5B2
:100AAE0082E43583F583E493FFE51890007E93FE90
:100ABE00C3EF9E30E10FE51A251824F0FFE5192447
:100ACE00F2FD121890E51BC43354E0249EF582E427
:100ADE003400F583E5822518F582E43583F583E449
:100AEE0093FFE51890007E93FEC3EF9E30E00FE576
:100AFE001A251824F0FFE51924F1FD121890051897
:0A0B0E00E518C39420500302078489
:010B180022BA
:0615C1008B0C8A0D890E5F
:1015C700E4F511F512F513F514ED75F008A42510DF
:1015D700F517D3943F507AED94035075E510940FA7
:1015E7004002806DE5124511706FAB0CAA0DA90E74
:1015F70012150C605C7E00E5142517FBEE3513FA17
:101607007C007D08AF03FE12157A8F157C007D08DC
:10161700AF03AE0212157A8D16AB0CAA0D12150C7C
:10162700FFAB16AD1512076E7401250EF50EE435E6
:101637000DF50D0514E514700205137E002517FF3F
:10164700EE3513FED3EF943FEE648094804095808F
:0916570000751100751201808B71
:011660002267
:1000030050726F6A6563742D3100332E372D2D3393
:100013002E313400707265737320746865206275C5
:1000230074746F6E002D2D2D2D2D2D2D2D2D2D2D19
:100033002D2D2D2D2D0030313233343536373839CF
:10004300006162636465666768696A6B6C6D6E6F95
:10005300707172737475767778797A0030313233D0
:0400630034353600FA
:0A1A0F0075FFDE75FFAD75EF0422D0
:0D19F800758E207591067592A07593FF22E3
:0400760075E8842283
:071A190075D48875D7802207
:041A2E0075D1032249
:071A200075A73075E34022B9
:1019AA00E4FFFE75B1670FBF00010EBE0BF8BFB8AA
:0919BA00F5E5B130E7FB75B20858
:0119C3002201
:071A270075A88075E703229A
:1019C400121A0F1219F8120076121A19121A2E127C
:0819D4001A201219AA021A27B9
:10112300E4F508F509F50AF50B1219C4E4F50AF517
:101133000BE50B25E0FFE50A33FE74002FF58274FF
:10114300003EF583E4F0A3F0050BE50B7002050AFE
:10115300B4E8DEE50AB403D912181A1219637DA79D
:101163007F011219DC7BFF7A0079037510047D017E
:101173001216617BFF7A00790D7510047D02121639
:1011830061E4F50AF50B7F647E001218F5050BE5A3
:101193000B7002050AC394FFE50A940040E87DA69C
:1011A3007F011219DC1219637BFF7A007917E4F5CA
:1011B300107D011216617BFF7A007928E4F5107D1A
:1011C3000212166112135D8F08E50860DB24FE60CE
:1011D3003C1460591470030212811470030212DC70
:1011E30014700302132824056003021357121963B2
:1011F300E4F5097BFF7A007939E4F510FD121661F5
:1012030012135D8F09E509B409E902135412196336
:10121300E4F5097BFF7A007944E4F510FD121661C9
:1012230012135D8F09E509B409E902135412196316
:10123300E4F509E4F50AF50BAD0BAF0512189005BB
:101243000BE50B7002050AC39440E50A940040E8DD
:10125300750A00750B40AF0BC3747F9FFD12189086
:10126300050BE50B7002050AC3947FE50A94004061
:10127300E512135D8F09E509B409B8021354121975
:1012830063E4F509E4F50AF50BAF0BC007AE0A7C7E
:10129300007D64121525ED25E0FFEC33FE74442F29
:1012A300F58274143EF583E493FE7401937806CEBD
:1012B300C313CE13D8F9FDD007121890050BE50B15
:1012C3007002050AC39480E50A940040BC12135DC2
:1012D3008F09E509B409AD8078121963E4F509E4CF
:1012E300F50AF50BAF0B7D1F121890050BE50B707C
:1012F30002050AC3947FE50A940040E8E4F50AF581
:101303000BAD0B7F3F121890050BE50B7002050A1E
:10131300C39440E50A940040E812135D8F09E50980
:10132300B409BC802C121963E4F5097BFF7A0079B8
:101333005FE4F5107D011215C17BFF7A00795FE44C
:10134300F5107D021215C112135D8F09E509B40969
:0A135300DA121963E4F5080211AB89
:1014440008000882090309840A020A7F0AF90B705A
:101454000BE40C530CBE0D240D850DE00E360E84EA
:101464000ECC0F0D0F470F790FA40FC60FE10FF32A
:101474000FFE0FFF0FFA0FEB0FD50FB60F8F0F6193
:101484000F2B0EEE0EA90E5E0E0C0DB40D560CF2C3
:101494000C890C1C0BAA0B350ABC0A4109C309446C
:1014A40008C3084107BF073D06BC063D05BF054408
:1014B40004CB045603E40377030E02AA024C01F49E
:1014C40001A20157011200D5009F0071004A002BB0
:1014D4000015000600000002000D001F003A005C29
:1014E400008700B900F30134017C01CA0220027BA9
:1014F40002DC034203AD041C04900507058105FECC
:08150400067C06FD077E0800CD
:0419F30002270000C7
:03007300021A323C
:041A320053917F321B
:03007B0002170069
:10170000C0E0C0F0C083C082C0D075D000C000C0AF
:1017100004C005C006C007C2ED85BED285BFD30593
:1017200028E52870020527D394E7E5276480948391
:101730004006752700752800E52825E0FFE52733DA
:10174000FE74002FF58274003EF583E5BFF0A3E53B
:10175000BEF0AE27AF287C007D0A12157AEF25E097
:10176000FFEE33FE74442FF58274143EF583E49348
:10177000FE740193F5D5EEF5D6D007D006D005D08E
:0E17800004D000D0D0D082D083D0F0D0E032A0
:0300000002178E56
:0C178E00787FE4F6D8FD7581280217D59D
:10150C00BB010689828A83E0225002E722BBFE02DD
:09151C00E32289828A83E4932210
:10152500BC000BBE0029EF8DF084FFADF022E4CCAA
:10153500F875F008EF2FFFEE33FEEC33FCEE9DEC73
:10154500984005FCEE9DFE0FD5F0E9E4CEFD22EDB9
:10155500F8F5F0EE8420D21CFEADF075F008EF2F03
:10156500FFED33FD4007985006D5F0F222C398FDF4
:051575000FD5F0EA2291
:10157A00C2D5EC30E709B2D5E4C39DFDE49CFCEE8C
:10158A0030E715B2D5E4C39FFFE49EFE121525C3CA
:10159A00E49DFDE49CFC800312152530D507C3E4C5
:0615AA009FFFE49EFE22FB
:1015B000EB9FF5F0EA9E42F0E99D42F0E89C45F091
:0115C0002208
:0C006700EE30E707C3E49FFFE49EFE229A
:10179A00021123E493A3F8E493A34003F68001F231
:1017AA0008DFF48029E493A3F85407240CC8C33350
:1017BA00C4540F4420C8834004F456800146F6DF1F
:1017CA00E4800B01020408102040809019EAE47EAC
:1017DA00019360BCA3FF543F30E509541FFEE49314
:1017EA00A360010ECF54C025E060A840B8E493A3DB
:1017FA00FAE493A3F8E493A3C8C582C8CAC583CA06
:10180A00F0A3C8C582C8CAC583CADFE9DEE780BEBD
:0119F70000EF
:00000001FF
